:100000000C94DF000C9407010C9407010C94AD04D0
:100010000C94AD040C94AD040C9407010C940701EE
:100020000C9407010C9407010C9407010C94070130
:100030000C9407010C9407010C9407010C94070120
:100040000C9463040C9407010C9431040C940B047D
:100050000C9407010C9407010C9407010C94070100
:100060000C9407010C94070108000000BE9224497B
:10007000123EABAAAA2ABECDCCCC4C3E00000080DA
:10008000BEABAAAAAA3E00000000BF000000803F4D
:100090000000000000084178D3BB4387D1133D190D
:1000A0000E3CC3BD4282AD2B3E68EC8276BED98F3A
:1000B000E1A93E4C80EFFFBE01C4FF7F3F0000007E
:1000C000000007634236B79BD8A71A39685618AEA6
:1000D000BAAB558C1D3CB7CC5763BD6DEDFD753E7D
:1000E000F6177231BF000000803F4D485A3A3A6916
:1000F0007350726548656174696E672829203D3EBA
:1001000020554E4B4E4F574E2053454E534F5200A5
:1001100022004D485A3A3A69735265616479282938
:10012000203D3E20554E4B4E4F574E2053454E538B
:100130004F52202200000000002300260029000A60
:1001400020232050504D2050574D3A20002D2D2077
:1001500072656164696E6720434F322066726F6D0D
:100160002070776D20002D2D2070776D2069732011
:100170006E6F7420636F6E666967757265642000C8
:1001800000000000250028002B00000000002400D3
:1001900027002A00040404040404040402020202E6
:1001A000020203030303030301020408102040803A
:1001B000010204081020010204081020FC0411248C
:1001C0001FBECFEFD8E0DEBFCDBF22E0AEEBB1E087
:1001D00001C01D92A237B207E1F711E0A0E0B1E043
:1001E000E4EFF6E102C005900D92AE3BB107D9F7FE
:1001F00010E0CFEDD0E004C02197FE010E94720B09
:10020000CE3DD107C9F70E9437050C94780B0C94AA
:100210000000CF93DF9390E0FC01E855FE4F24915E
:100220008C569E4FFC0184918823C1F090E0880F8A
:10023000991FFC01E657FE4FC591D491FC01E0588F
:10024000FE4FA591B4919FB7F8948881E22FE09575
:100250008E2388838C91E823EC939FBFDF91CF910D
:100260000895AF92BF92CF92DF92EF92FF920F93D9
:100270001F93CF93DF936C017B018B01040F151F3C
:10028000EB015E01AE18BF08C017D10759F06991A4
:10029000D601ED91FC910190F081E02DC601099508
:1002A000892B79F7C501DF91CF911F910F91FF90B5
:1002B000EF90DF90CF90BF90AF900895FC01538DE9
:1002C000448D252F30E0842F90E0821B930B541730
:1002D00010F0CF96089501970895FC01918D828DBD
:1002E000981761F0A28DAE0FBF2FB11D5D968C9156
:1002F000928D9F5F9F73928F90E008958FEF9FEF95
:100300000895FC01918D828D981731F0828DE80F50
:10031000F11D858D90E008958FEF9FEF0895FC010A
:10032000918D228D892F90E0805C9F4F821B9109D7
:100330008F739927089589EC91E00E948F0121E045
:10034000892B09F420E0822F089580E090E0892B2A
:1003500029F00E949B0181110C9400000895FC017A
:10036000A48DA80FB92FB11DA35ABF4F2C91848D16
:1003700090E001968F739927848FA689B7892C9373
:10038000A089B1898C91837080648C93938D848DC6
:10039000981306C00288F389E02D80818F7D8083C9
:1003A0000895EF92FF920F931F93CF93DF93EC0189
:1003B00081E0888F9B8D8C8D98131AC0E889F9890C
:1003C000808185FF15C09FB7F894EE89FF8960830F
:1003D000E889F98980818370806480839FBF81E090
:1003E00090E0DF91CF911F910F91FF90EF900895D2
:1003F000F62E0B8D10E00F5F1F4F0F731127E02EAD
:100400008C8D8E110CC00FB607FCFACFE889F989E4
:10041000808185FFF5CFCE010E94AF01F1CFEB8D3A
:10042000EC0FFD2FF11DE35AFF4FF0829FB7F894B8
:100430000B8FEA89FB8980818062CFCF0F931F9356
:10044000CF93DF938C01D0E0C0E0F801EC0FFD1FEB
:100450006491662341F089EC91E00E94D101892BDF
:1004600011F02196F2CFCE01DF91CF911F910F9124
:100470000895CF93DF93EC01888D8823B9F0AA8982
:10048000BB89E889F9898C9185FD03C0808186FD4F
:100490000DC00FB607FCF7CF8C9185FFF2CF80819E
:1004A00085FFEDCFCE010E94AF01E9CFDF91CF9163
:1004B00008958E50806480937C0080917A008064DF
:1004C00080937A0080917A0086FDFCCF809178003D
:1004D0009091790008953FB7F8948091C10190916F
:1004E000C201A091C301B091C40126B5A89B05C06B
:1004F0002F3F19F00196A11DB11D3FBFBA2FA92FA3
:10050000982F8827BC01CD01620F711D811D911D9F
:1005100042E0660F771F881F991F4A95D1F708950B
:100520008F929F92AF92BF92CF92DF92EF92FF9203
:100530004B015C010E946B026B017C010E946B020B
:100540006C197D098E099F09683E734081059105EC
:10055000A8F321E0821A9108A108B10888EEC80E1C
:1005600083E0D81EE11CF11C81149104A104B104A4
:1005700029F7FF90EF90DF90CF90BF90AF909F90C2
:100580008F900895FC0101900020E9F73197AF01A9
:10059000481B590BBC0189EC91E00C9431018F92FE
:1005A0009F92AF92BF920F931F93CF93DF93CDB7DC
:1005B000DEB7A1970FB6F894DEBF0FBECDBF19A26C
:1005C000423008F44AE08E010F5D1F4F842E912CBB
:1005D000B12CA12CA50194010E94500BE62FB9016A
:1005E000CA01EA30F4F4E05DD801EE938D01232BCB
:1005F000242B252B79F790E080E0109719F0CD019E
:100600000E94C202A1960FB6F894DEBF0FBECDBF06
:10061000DF91CF911F910F91BF90AF909F908F90DE
:100620000895E95CE1CFCF93DF930E941E02EC01B5
:1006300082E191E00E94C2028C0F9D1FDF91CF9159
:100640000895CF93DF930E94C202EC0182E191E012
:100650000E94C2028C0F9D1FDF91CF9108954F928F
:100660005F926F927F928F929F92AF92BF92CF9242
:10067000DF92EF92FF920F931F93CF936B017C0158
:10068000742EAC019B010E94660A882399F085E1D3
:1006900091E0CF911F910F91FF90EF90DF90CF905D
:1006A000BF90AF909F908F907F906F905F904F9092
:1006B0000C94C20246015701E894B7F82FEF3FEFC0
:1006C0004FE75FE7C501B4010E94660A81110DC0C2
:1006D0002FEF3FEF4FE75FE7C501B4010E946D07C1
:1006E00018161CF489E191E0D4CF2FEF3FEF4FE7CC
:1006F0005FE4C701B6010E94B90918161CF48DE128
:1007000091E0C7CF2FEF3FEF4FE75FECC701B60196
:100710000E946D0787FDF3CF20E030E0A901C701FB
:10072000B6010E946D0710E000E087FF0AC06DE28D
:1007300089EC91E00E94D1018C01F7FAF094F7F86E
:10074000F094C0E060E070E080E09FE37C1641F050
:1007500020E030E040E251E40E941809CF5FF6CF7C
:10076000A70196010E94AC082B013C010E948A0956
:100770004B015C014AE00E94CF027C01E00EF11EB9
:10078000CC23C1F1C501B4010E9472079B01AC01E9
:10079000C301B2010E94AB084B015C016EE289EC1F
:1007A00091E00E94D101E80EF91EC15018F120E03D
:1007B00030E040E251E4C501B4010E94D3072B01AF
:1007C0003C010E948A094B01B12CA12C4AE0C501D1
:1007D000B4010E94CF02E80EF91EC501B4010E94C7
:1007E00072079B01AC01C301B2010E94AB084B012F
:1007F0005C01DBCFC701CF911F910F91FF90EF906C
:10080000DF90CF90BF90AF909F908F907F906F9030
:100810005F904F9008951F920F920FB60F92112480
:100820002F933F934F935F936F937F938F939F93F8
:10083000AF93BF93EF93FF9389EC91E00E94AF01D8
:10084000FF91EF91BF91AF919F918F917F916F91A8
:100850005F914F913F912F910F900FBE0F901F907E
:1008600018951F920F920FB60F9211242F938F930A
:100870009F93EF93FF93E091D901F091DA0180818A
:10088000E091DF01F091E00182FD1BC09081809139
:10089000E2018F5F8F732091E301821741F0E091B5
:1008A000E201F0E0E753FE4F958F8093E201FF9164
:1008B000EF919F918F912F910F900FBE0F901F90EE
:1008C00018958081F4CF1F920F920FB60F921124CA
:1008D0002F933F938F939F93AF93BF938091C501C5
:1008E0009091C601A091C701B091C8013091C0019B
:1008F00023E0230F2D3758F50196A11DB11D20933C
:10090000C0018093C5019093C601A093C701B09325
:10091000C8018091C1019091C201A091C301B09121
:10092000C4010196A11DB11D8093C1019093C20124
:10093000A093C301B093C401BF91AF919F918F91D8
:100940003F912F910F900FBE0F901F90189526E8A2
:10095000230F0296A11DB11DD2CF1F920F920FB689
:100960000F9211240F900FBE0F901F901895CF92E9
:10097000DF92EF92FF920F931F93E82FF92F05C09C
:10098000015011092109310961F1908196239417D1
:10099000B9F305C0015011092109310911F1908104
:1009A00096239413F7CFC12CD12CE12CF12C0AC043
:1009B0008FEFC81AD80AE80AF80A0C151D052E058B
:1009C0003F0579F080818623841791F36C2D7D2D6E
:1009D0008E2D9F2D1F910F91FF90EF90DF90CF9064
:1009E000089560E070E080E090E01F910F91FF902B
:1009F000EF90DF90CF900895E9ECF1E0138212823E
:100A000088EE93E0A0E0B0E084839583A683B7836B
:100A100084E091E09183808385EC90E095878487E2
:100A200084EC90E09787868780EC90E0918B808BB8
:100A300081EC90E0938B828B82EC90E0958B848BA1
:100A400086EC90E0978B868B118E128E138E148E0F
:100A5000E6E6F2E01382168217821086118681E0A4
:100A600083878AE0808383E1818312860895789466
:100A700084B5826084BD84B5816084BD85B58260A3
:100A800085BD85B5816085BD80916E008160809354
:100A90006E001092810080918100826080938100BD
:100AA00080918100816080938100809180008160CD
:100AB000809380008091B10084608093B100809128
:100AC000B00081608093B00080917A008460809350
:100AD0007A0080917A00826080937A0080917A0017
:100AE000816080937A0080917A00806880937A0098
:100AF0001092C100E091D901F091DA0182E0808387
:100B0000E091D501F091D6011082E091D701F091EA
:100B1000D8018FEC80831092E101E091DD01F0912A
:100B2000DE0186E08083E091DB01F091DC018081D1
:100B300080618083E091DB01F091DC01808188603D
:100B40008083E091DB01F091DC018081806880830B
:100B5000E091DB01F091DC0180818F7D80838EE06C
:100B60000E9409018FE00E9409018AE00E940901A8
:100B700081E291E00E94C202809167028E30C9F545
:100B80002FB7F8948091C5019091C601A091C7013B
:100B9000B091C8012FBF80329F4BA240B10500F138
:100BA000809167028E3061F540916C0250916D0228
:100BB00060916E0270916F022FB7F8948091C50119
:100BC0009091C601A091C701B091C8012FBF805676
:100BD0009A4EA109B109481759076A077B07D0F156
:100BE00068E873E180E090E00E94900281E491E087
:100BF000C1CF833129F28AEE90E00E941303D0CF57
:100C00008331C1F440916C0250916D0260916E028B
:100C100070916F022FB7F8948091C5019091C60131
:100C2000A091C701B091C8012FBF805C944DA14035
:100C3000B109D1CF82E191E00E941E02609167026A
:100C400070E090E080E04AE00E94CF0280E191E015
:100C50000E94130383E491E00E94210383E591E065
:100C60000E94210383E691E00E94210383E891E042
:100C70000E94210328EEC22E23E0D22EE12CF12C7B
:100C8000C0E0D0E08EE00E945902BC01990F880BB1
:100C9000990B0E9474072AE038E240EA5BE30E9465
:100CA000D3079B01AC0160E070E088EC92E40E9405
:100CB000180920E030E040EA51E40E94AB0820E04F
:100CC00030E04EE252E40E9418090E94BE0924E579
:100CD00033EE45EE5EE30E94AB082FE135E84BE6CC
:100CE0005EEB0E9418099B01AC0160E070E080E2BD
:100CF00091E40E94160A4B015C0187EA91E00E9490
:100D0000C20242E0C501B4010E942F038DEA91E0C6
:100D10000E9421038FE00E945902BC01990F880BA9
:100D2000990B0E9474072AE038E240EA5BE30E94D4
:100D3000D3079B01AC0160E070E08BE693E40E9476
:100D4000180920E030E04CE352E40E94AB0820E0B8
:100D500030E040EA51E40E9418090E94BE092DE3E8
:100D60003AE047ED5EE30E94AB0820EF37EA46E841
:100D70005EEB0E9418099B01AC0160E070E080E22C
:100D800091E40E94160A4B015C0182EB91E00E9403
:100D9000C20242E0C501B4010E942F038DEA91E036
:100DA0000E942103909171028091690291110BC000
:100DB000882321F086E691E00E9413038AEF882EB3
:100DC00099249A9459C0882321F08DE491E00E94DF
:100DD0001E0280916902882321F081E491E00E9443
:100DE000C2028091660290E0FC01E855FE4F6491DA
:100DF000FC01EC56FE4FE491F0E0EE0FFF1FEB5CC0
:100E0000FE4F8591949100EE11E52FE030E0462FE2
:100E10000E94B704611571058105910529F06F5F86
:100E20007F4F8F4F9F4F9F70A70196010E94500BDD
:100E3000211531054105510561F2A0EDB7E00E9491
:100E40009108605A7F4081099109A70196010E948B
:100E5000500B49015A0180916902882369F08FE3A0
:100E600091E00E941E024AE0C501B4010E94CF0237
:100E700082E191E00E94C20288EB91E00E94C202EE
:100E8000092C000CAA08BB084AE0C501B401B7FE52
:100E90000DC06DE289EC91E00E94D10166277727B1
:100EA000CB01681979098A099B094AE00E94CF029F
:100EB0008DEA91E00E94210360ED77E080E090E010
:100EC0000E949002209709F4DDCE0E949B018823A6
:100ED00009F4D8CE0E940000D5CE0E94AF0708F4D6
:100EE00081E00895E89409C097FB3EF490958095C1
:100EF000709561957F4F8F4F9F4F9923A9F0F92FE0
:100F000096E9BB279395F695879577956795B7955D
:100F1000F111F8CFFAF4BB0F11F460FF1BC06F5F43
:100F20007F4F8F4F9F4F16C0882311F096E911C055
:100F3000772321F09EE8872F762F05C0662371F076
:100F400096E8862F70E060E02AF09A95660F771F8A
:100F5000881FDAF7880F9695879597F90895990F66
:100F60000008550FAA0BE0E8FEEF16161706E80773
:100F7000F907C0F012161306E407F50798F0621B94
:100F8000730B840B950B39F40A2661F0232B242B69
:100F9000252B21F408950A2609F4A140A6958FEF88
:100FA000811D811D08950E94E6070C9457080E9438
:100FB000490838F00E94500820F0952311F00C9455
:100FC00040080C94460811240C948B080E94680871
:100FD00070F3959FC1F3950F50E0551F629FF0018C
:100FE000729FBB27F00DB11D639FAA27F00DB11DA5
:100FF000AA1F649F6627B00DA11D661F829F22272E
:10100000B00DA11D621F739FB00DA11D621F839FB4
:10101000A00D611D221F749F3327A00D611D231F8A
:10102000849F600D211D822F762F6A2F11249F57D8
:1010300050409AF0F1F088234AF0EE0FFF1FBB1FDB
:10104000661F771F881F91505040A9F79E3F51059A
:1010500080F00C9440080C948B085F3FE4F3983EBA
:10106000D4F3869577956795B795F795E7959F5F44
:10107000C1F7FE2B880F911D9695879597F90895D6
:1010800097F99F6780E870E060E008959FEF80EC3B
:10109000089500240A9416161706180609060895DE
:1010A00000240A9412161306140605060895092E44
:1010B0000394000C11F4882352F0BB0F40F4BF2BB3
:1010C00011F460FF04C06F5F7F4F8F4F9F4F0895F3
:1010D00057FD9058440F551F59F05F3F71F04795E9
:1010E000880F97FB991F61F09F3F79F087950895CE
:1010F000121613061406551FF2CF4695F1DF08C0ED
:10110000161617061806991FF1CF86957105610509
:1011100008940895E894BB2766277727CB0197F9B1
:1011200008950E949C08A59F900DB49F900DA49FC8
:10113000800D911D11240895A29FB001B39FC0019D
:10114000A39F700D811D1124911DB29F700D811DF3
:101150001124911D08955058BB27AA270E94C30847
:101160000C9457080E94490838F00E94500820F05B
:1011700039F49F3F19F426F40C9446080EF4E095D8
:10118000E7FB0C944008E92F0E94680858F3BA174F
:10119000620773078407950720F079F4A6F50C948D
:1011A0008A080EF4E0950B2EBA2FA02D0B01B90181
:1011B00090010C01CA01A0011124FF27591B99F0CD
:1011C000593F50F4503E68F11A16F040A22F232FD9
:1011D000342F4427585FF3CF469537952795A79529
:1011E000F0405395C9F77EF41F16BA0B620B730BD0
:1011F000840BBAF09150A1F0FF0FBB1F661F771F41
:10120000881FC2F70EC0BA0F621F731F841F48F4F5
:10121000879577956795B795F7959E3F08F0B0CF7E
:101220009395880F08F09927EE0F97958795089565
:101230000E942C090C9457080E94500858F00E94F4
:10124000490840F029F45F3F29F00C9440085111FF
:101250000C948B080C9446080E94680868F3992344
:10126000B1F3552391F3951B550BBB27AA276217A2
:101270007307840738F09F5F5F4F220F331F441FAF
:10128000AA1FA9F335D00E2E3AF0E0E832D09150E3
:101290005040E695001CCAF72BD0FE2F29D0660FD0
:1012A000771F881FBB1F261737074807AB07B0E813
:1012B00009F0BB0B802DBF01FF2793585F4F3AF019
:1012C0009E3F510578F00C9440080C948B085F3FCA
:1012D000E4F3983ED4F3869577956795B795F7959F
:1012E0009F5FC9F7880F911D9695879597F9089587
:1012F000E1E0660F771F881FBB1F62177307840723
:10130000BA0720F0621B730B840BBA0BEE1F88F731
:10131000E09508950E94700888F09F5798F0B92FC3
:101320009927B751B0F0E1F0660F771F881F991F1A
:101330001AF0BA95C9F714C0B13091F00E948A082A
:10134000B1E008950C948A08672F782F8827B85F3A
:1013500039F0B93FCCF3869577956795B395D9F772
:101360003EF490958095709561957F4F8F4F9F4F7C
:1013700008950E94AF0708F48FEF08950E94CE09E8
:1013800029ED3BE54EED5EE30C94D30716F00C948B
:10139000A50A0C94460868940C9440080E947008B2
:1013A000A8F39923C1F3AEF3DF93CF931F930F9369
:1013B000FF92C92FDD2788232AF02197660F771F18
:1013C000881FDAF720E030E040E85FEB9FE38839E0
:1013D00020F0803E38F021968F770E94AC08E8E636
:1013E000F0E004C00E94AC08E5E9F0E00E94B30A16
:1013F0008B01BE01EC01FB2E6F5771097595771FAC
:10140000880B990B0E94740728E132E741E35FE300
:101410000E94E607AF2D9801AE01FF900F911F913A
:10142000CF91DF910E94C3080C945708FA01EE0F88
:10143000FF1F309621053105A1F16115710561F499
:101440008038BFE39B0749F168949038810561F0CB
:101450008038BFEF9B0741F099234AF5FF3FE10534
:101460003105210519F1E8940894E795D901AA23DB
:1014700029F4AB2FBE2FF85FD0F310C0FF5F70F4DC
:10148000A695E0F7F73950F019F0FF3A38F49F7756
:101490009F930DD00F9007FC9058089546F00C9440
:1014A000460860E070E080E89FE308954FE79F778B
:1014B0005F934F933F932F930E94CE092F913F91BB
:1014C0004F915F910E94D3070C94730A0E94AF075B
:1014D000880B990B089529F416F00C9440080C948D
:1014E0008A080C9446080E947008A8F39638A0F762
:1014F00007F80F92E8942BE33AEA48EB5FE70E9483
:10150000E9070F920F920F924DB75EB70F920E94AC
:101510001C0BE2ECF0E00E94B30A4F915F91EF9157
:10152000FF91E595EE1FFF1F49F0FE57E068442745
:10153000EE0F441FFA95E1F74195550B0E94E60A1C
:101540000F9007FE0C94DA0A08959F3F31F09150F6
:1015500020F4879577956795B795880F911D969597
:10156000879597F90895DF93CF931F930F93FF9279
:10157000EF92DF927B018C01689406C0DA2EEF01B6
:101580000E94E607FE01E894A591259135914591C9
:101590005591A6F3EF010E94C308FE019701A8012F
:1015A000DA9469F7DF90EF90FF900F911F91CF9140
:1015B000DF9108959B01AC0160E070E080E89FE35B
:1015C0000C9418090C9440080C94A50A0E94700809
:1015D000D8F39923C9F3940F511DA3F391505040B0
:1015E00094F059F0882332F0660F771F881F9150CE
:1015F0005040C1F79E3F51052CF7880F911D9695DD
:10160000879597F908955F3FACF0983E9CF0BB2713
:10161000869577956795B79508F4B1609395C1F76E
:10162000BB0F58F711F460FFE8CF6F5F7F4F8F4F0C
:101630009F4FE3CF0C948B08FA01DC01AA0FBB1F6C
:101640009B01AC01BF5728F4222733274427507849
:1016500020C0B75190F4AB2F0024469537952795BD
:10166000011CA395D2F3002071F0220F331F441FF9
:10167000B395DAF30ED00C94AB0861307105A0E895
:101680008A07B94630F49B01AC0166277727882783
:101690009078309621F020833183428353830895DC
:1016A000A1E21A2EAA1BBB1BFD010DC0AA1FBB1F66
:1016B000EE1FFF1FA217B307E407F50720F0A21BD8
:1016C000B30BE40BF50B661F771F881F991F1A9445
:1016D00069F760957095809590959B01AC01BD016F
:1016E000CF010895EE0FFF1F0590F491E02D0994AE
:0416F000F894FFCF9C
:1016F40000000000D10131015E0139028F016D014A
:1017040081010D0A006E616E00696E66006F766677
:101714000057616974696E6720666F72204D482DA9
:101724005A3139422070726568656174696E672048
:10173400002E004D512D3133362020666F72204823
:101744003253004D512D3133372020666F72204EB5
:101754004833004D482D5A31394220666F72204378
:101764004F3220616E642074656D706572617475AA
:101774007265002D2D2D2D2D2D2D2D2D2D73746184
:101784007274207265636F7264696E672D2D2D2DDE
:101794002D2D2D2D2D2D004832533A200020707010
:0E17A4006D004E48333A2000434F323A200089
:00000001FF
